S00C0000636F64652E737265637D
S11300000C942A000C9447000C9447000C9447006D
S11300100C9447000C9447000C9447000C94470040
S11300200C9447000C9447000C9449000C9447002E
S11300300C9447000C9447000C9447000C94470020
S11300400C9447000C9447000C9447000C94470010
S11300500C94470011241FBECFE5D8E0DEBFCDBF0E
S113006010E0A0E6B0E0E4EAF5E002C005900D92ED
S1130070AA36B107D9F720E0AAE6B0E001C01D9284
S1130080A238B207E1F70E9487000C94D0020C94C6
S113009000001F920F920FB60F9211248F939F931B
S11300A080916E0090916F0001968A30910529F03D
S11300B090936F0080936E0016C010926F001092A0
S11300C06E0080916A0090916B00019790936B0091
S11300D080936A0080916C0090916D0001979093D9
S11300E06D0080936C009F918F910F900FBE0F90C5
S11300F01F901895806487B983E08A95F1F7000012
S1130100369A349BFECF349A84B195B108958EEF1C
S11301108ABB1BBA8FE387BB18BA8FEF84BB15BAAF
S113012080EF81BB12BA80E487B983E886B98DE099
S113013083BF12BE8AE38CBF82E089BF789418BA69
S11301400F2EF8EC8F2E912CF02DCAE0D0E068949D
S1130150EE24E7F86894FF24F6F800E210E10F2E8D
S1130160F3E0DF2EF02D80E00E947A0090937F0070
S113017080937E00813B24E092073CF080EB94E086
S113018090937F0080937E0007C0883C910524F4FF
S113019090927F0080927E0020917E0030917F00BB
S11301A0C901BE010E94A8025B01709381006093A3
S11301B0800084E390E09093790080937800C901F3
S11301C068EE73E00E94A802709375006093740057
S11301D022E32A9DC0012B9D900D1124E4E6F0E05A
S11301E0BF010E94A8029B0140E34A9DC0014B9DB0
S11301F0900D1124BF010E94A802260F371F3093CF
S113020071002093700054E3529FC001539F900DDE
S11302101124BF010E94A8025B01709377006093D0
S11302207600429FC001439F900D1124BF010E949C
S1130230A8027093730060937200B0926D00A09254
S11302406C0070936B0060936A0010926F001092C0
S11302506E0018BA21E231E1A9C040916A005091C0
S11302606B00141615060CF440C0BE010E94A802CF
S1130270FC01CB01BE010E94A80290937B008093F5
S11302807A00F0937D00E0937C0038BBE2BAE09101
S11302907C00F0917D00E05AFF4F808185BB83ECA8
S11302A099E00197F1F700C00000F2BAE0917A00FA
S11302B0F0917B00E05AFF4F808185BB83EC99E08D
S11302C00197F1F700C0000002BBDBBA83EC99E0B0
S11302D00197F1F700C0000012BBDBBA83EC99E090
S11302E00197F1F700C0000061C0BE010E94A8029E
S11302F0FC01CB01BE010E94A80290937B00809375
S11303007A00F0937D00E0937C0028BBE2BAE09190
S11303107C00F0917D00E05AFF4F808185BB83EC27
S113032099E00197F1F700C00000F2BAE0917A0079
S1130330F0917B00E05AFF4F808185BB83EC99E00C
S11303400197F1F700C0000080916A0090916B0062
S1130350BE010E94A802FC01CB01BE010E94A802BA
S113036090937B0080937A00F0937D00E0937C006F
S113037002BBE0917C00F0917D00E05AFF4F808148
S11303808BBB83EC99E00197F1F700C0000012BB2E
S1130390E0917A00F0917B00E05AFF4F80818BBBA3
S11303A083EC99E00197F1F700C0000080916C00A4
S11303B090916D00181619060CF44FCF80917600B9
S11303C09091770090936D0080936C0010926F0071
S11303D010926E00809172009091730090936B0064
S11303E080936A002CE03AE0AAC080916A00909160
S11303F06B00181619060CF441C0CA01BE010E9414
S1130400A802FC01CB01BE010E94A80290937B00CC
S113041080937A00F0937D00E0937C0038BB02BBAC
S1130420E0917C00F0917D00E05AFF4F80818BBB0E
S113043083EC99E00197F1F700C0000012BBE09152
S11304407A00F0917B00E05AFF4F80818BBB83ECF4
S113045099E00197F1F700C00000E2BAD5BA83EC45
S113046099E00197F1F700C00000F2BAD5BA83EC25
S113047099E00197F1F700C0000061C0BE010E943D
S1130480A802FC01CB01BE010E94A80290937B004C
S113049080937A00F0937D00E0937C0028BBE2BA5D
S11304A0E0917C00F0917D00E05AFF4F808185BB94
S11304B083EC99E00197F1F700C00000F2BAE091F3
S11304C07A00F0917B00E05AFF4F808185BB83EC7A
S11304D099E00197F1F700C0000080916C009091C1
S11304E06D00BE010E94A802FC01CB01BE010E9466
S11304F0A80290937B0080937A00F0937D00E093B0
S11305007C0002BBE0917C00F0917D00E05AFF4F3B
S113051080818BBB83EC99E00197F1F700C0000068
S113052012BBE0917A00F0917B00E05AFF4F80818A
S11305308BBB83EC99E00197F1F700C00000409178
S11305406C0050916D00141615060CF44ECF0BCEB2
S113055097FB072E16F4009407D077FD09D00E946C
S1130560BC0207FC05D03EF4909581959F4F0895F9
S1130570709561957F4F0895AA1BBB1B51E107C07D
S1130580AA1FBB1FA617B70710F0A61BB70B881F1F
S1130590991F5A95A9F780959095BC01CD010895AE
S10705A0F894FFCFF9
S10D05A4039F250D9949411F010929
S9030000FC
